:0400000080311D2806
:100008007E14803120007F08F100901E18282100FE
:10001800901E18289D180E281C08F0007008FA0079
:100028002000901221009D1471082000FF007E100E
:10003800090080311F28FA012000A001A101A201B6
:10004800A301A401A5017E1020008431642C133083
:100058007A02031C5A281D307A0203185A28F30121
:1000680001308431D024803114307A0603192E2AC5
:1000780015307A060319352A16307A0603193B2AF1
:1000880017307A060319412A18307A060319472AC5
:1000980019307A0603194D2A1A307A060319532A99
:1000A8001B307A060319592A1C305C2A1D307A0243
:1000B800031C8A2827307A0203188A28F301F30AD6
:1000C80001308431D02480311E307A0603192E2A5B
:1000D8001F307A060319352A20307A0603193B2A7D
:1000E80021307A060319412A22307A060319472A51
:1000F80023307A0603194D2A24307A060319532A25
:1001080025307A060319592A26305C2A27307A02C4
:10011800031CBC2831307A020318BC280230F800CE
:100128007808F30001308431D024803128307A06F1
:1001380003192E2A29307A060319352A2A307A0615
:1001480003193B2A2B307A060319412A2C307A06E8
:100158000319472A2D307A0603194D2A2E307A06BC
:100168000319532A2F307A060319592A30305C2A8A
:1001780031307A02031CEE283B307A020318EE284D
:100188000330F8007808F30001308431D02480313E
:1001980032307A0603192E2A33307A060319352AA3
:1001A80034307A0603193B2A35307A060319412A76
:1001B80036307A060319472A37307A0603194D2A4A
:1001C80038307A060319532A39307A060319592A1E
:1001D8003A305C2A3B307A02031C202945307A02E7
:1001E800031820290430F8007808F300013084311E
:1001F800D02480313C307A0603192E2A3D307A0605
:100208000319352A3E307A0603193B2A3F307A060D
:100218000319412A40307A060319472A41307A06E1
:1002280003194D2A42307A060319532A43307A06B5
:100238000319592A44305C2A45307A02031C522992
:100248004F307A02031852290530F8007808F30075
:1002580001308431D024803146307A0603192E2AA1
:1002680047307A060319352A48307A0603193B2A9B
:1002780049307A060319412A4A307A060319472A6F
:100288004B307A0603194D2A4C307A060319532A43
:100298004D307A060319592A4E305C2A4F307A02BB
:1002A800031C842959307A02031884290630F8007F
:1002B8007808F30001308431D024803150307A0638
:1002C80003192E2A51307A060319352A52307A0634
:1002D80003193B2A53307A060319412A54307A0607
:1002E8000319472A55307A0603194D2A56307A06DB
:1002F8000319532A57307A060319592A58305C2AA9
:1003080059307A02031CB62963307A020318B629D9
:100318000730F8007808F30001308431D0248031A8
:100328005A307A0603192E2A5B307A060319352AC1
:100338005C307A0603193B2A5D307A060319412A94
:100348005E307A060319472A5F307A0603194D2A68
:1003580060307A060319532A61307A060319592A3C
:1003680062305C2A63307A02031CE8296D307A0215
:100378000318E8290830F8007808F30001308431C0
:10038800D024803164307A0603192E2A65307A0623
:100398000319352A66307A0603193B2A67307A062C
:1003A8000319412A68307A060319472A69307A0600
:1003B80003194D2A6A307A060319532A6B307A06D4
:1003C8000319592A6C305C2A6D307A02031C1A2AE8
:1003D80077307A0203181A2A0830F8007808F300F0
:1003E80001308431D02480316E307A0603192E2AE8
:1003F8006F307A060319352A70307A0603193B2ABA
:1004080071307A060319412A72307A060319472A8D
:1004180073307A0603194D2A74307A060319532A61
:1004280075307A060319592A76305C2A77307A02B1
:10043800031C632A81307A020318632A0930F80002
:100448007808F30001308431D024803178307A067E
:10045800031D312AF301F30A6F2A79307A06031D46
:10046800372A02306C2A7A307A06031D3D2A033077
:100478006C2A7B307A06031D432A04306C2A7C30B0
:100488007A06031D492A05306C2A7D307A06031D39
:100498004F2A06306C2A7E307A06031D552A07300B
:1004A8006C2A7F307A06031D5B2A08306C2A80305C
:1004B8007A06031D612A09306C2AF3016F2A0B3072
:1004C800F8007808F30001308431D02480310B30F3
:1004D800F8007808F30002308431D02480317B3072
:1004E8007A02031C7F2A01302000A2000030A300FA
:1004F8008331AE2380313C307A0203180800013082
:100508002000A0000030A1008331AE2308002000A5
:10051800A801A901A601A7010330F7008A30F60057
:100528005630890B952AF60B952AF70B952A0E302B
:10053800F6007608F30001308431D02482310E3081
:10054800F6007608F30002308431D024823103307B
:10055800F7008A30F6005630890BB02AF60BB02A1D
:10056800F70BB02A2000A801A9012908803AF60053
:1005780080307602031DC22A0A3028020318832B12
:10058800F3010A308431D02482312B2BF301F30A92
:100598000A308431D02482313B2B0330F6007608B0
:1005A800F3000A308431D02482313B2B0530F60029
:1005B8007608F3000A308431D02482313B2B07308F
:1005C800F6007608F3000A308431D02482313B2BC0
:1005D8000930F6007608F3000A308431D0248231DD
:1005E8003B2B0B30F6007608F3000A308431D02418
:1005F80082313B2B0C30F6007608F3000A30843148
:10060800D02482313B2B0D30F6007608F3000A30F7
:100618008431D02482313B2B0E30F6007608F3006B
:100628000A308431D02482313B2B0F30F600760813
:10063800F3000A308431D02482313B2B0F30F6008E
:100648007608F3000A308431D02482313B2B200015
:100658002908003A0319312B222B280884000A3074
:1006680004020318222B84310435E63E8200200060
:100678002808F6007608F30001308431D02482314E
:100688002000A601A7012708803AF60080307602EC
:10069800031D502B0A3026020318732B2130F60055
:1006A8007630890B552BF60B552B00322000260887
:1006B800F6007608F30002308431D024823101300C
:1006C8002000A6070030A73D2708803AF6008030B2
:1006D8007602031D712B0A302602031C522B0130AF
:1006E8002000A8070030A93D2908803AF60080308C
:1006F8007602031D812B0A302802031CC42A03300A
:10070800F7008A30F6005630890B882BF60B882BB9
:10071800F70B882B0A30F6007608F3000130843195
:10072800D02482310A30F6007608F3000230843192
:10073800D02482310330F7008A30F6005630890B16
:10074800A32BF60BA32BF70BA32BF301003084315B
:10075800D0240800200022032304031D092CA6012D
:10076800A7012708803AF60080307602031DBE2BC9
:10077800033026020318062C0430F700CF30F600A9
:100788000230890BC52BF60BC52BF70BC52B0C308C
:10079800F6007608F30001308431D02483310C3020
:1007A800F6007608F30002308431D0248331033018
:1007B800F7008A30F6005630890BE02BF60BE02B59
:1007C800F70BE02B0F30F6007608F3000130843188
:1007D800D02483310F30F6007608F30002308431DC
:1007E800D024833101302000A6070030A73D270818
:1007F800803AF60080307602031D042C033026026E
:10080800031CC02B2000A201A30120032104031D07
:100818000800A801A9012908803AF600803076026C
:10082800031D182C033028020318602C0430F7002D
:10083800CF30F6000230890B1F2CF60B1F2CF70B5C
:100848001F2C0D30F6007608F30001308431D024D7
:1008580083310D30F6007608F30002308431D0245D
:1008680083310330F7008A30F6005630890B3A2C72
:10087800F60B3A2CF70B3A2C0F30F6007608F300FB
:1008880001308431D02483310F30F6007608F3002C
:1008980002308431D024833101302000A807003091
:1008A800A93D2908803AF60080307602031D5E2CA7
:1008B80003302802031C1A2C2000A001A101080003
:1008C80060303200990003309F008531072584315C
:1008D8008431FA2484317F3021008E008E120E126A
:1008E8008E110E1530302400950019303D00A500FA
:1008F8001830A40001303C008F0084319D248431DD
:1009080082318B2284310230F9007908F3000A30F1
:100918008431D024843120009012C330F900CD30C6
:10092800890B942CF90B942C000080312B208431F6
:10093800912C20008E11F30100308431D0248431B1
:10094800F301F30A0F308431D0248431F3010F30DE
:100958008431D02484310F30F6007608F300093052
:100968008431D02484310F30F6007608F3000A3041
:100978008431D0248431F301F30A0B308431D0243C
:100988008431F301F30A0C308431D0248431F3012B
:1009980000308431D0240800F5007508853114250D
:1009A8008431730885311425843120008E11073075
:1009B800F4007D30890BDE2CF40BDE2C00002000C7
:1009C8008E1508008231CA2A8231D12A8231DA2A68
:1009D8008231E32A8231EC2A8231F52A8231FE2AD9
:1009E8008331072B8331102B8331192B8030200062
:1009F8009700463098002030210090008B179D30DA
:100A080020009600080021000E1523000E1549301D
:100A180021009D0043309E00C2302200970008004C
:100A2800F2002400951372089100141C192D110866
:020A38000800B4
:020000040001F9
:08000E00ECFFF3FFFFFFFFFF11
:00000001FF
